:020000040800F2
:10000000A00A0020F1010008773F0008C73B000864
:10001000753F0008651F00089947000800000000B0
:10002000000000000000000000000000A5400008E3
:10003000671F0008000000007140000835410008FB
:100040000B0200080B0200080B0200080B0200085C
:100050000B0200080B020008711F00088D1F00082A
:10006000A91F00085D200008112100080B020008EC
:100070000B0200080B0200080B0200080B0200082C
:100080000B0200080B0200080B0200080B0200081C
:100090000B0200080B0200080B0200082D210008CB
:1000A0000B0200080B0200080B0200089D4100082B
:1000B0000B0200080B020008A94100080B0200080F
:1000C0000B0200080B0200080B0200080B020008DC
:1000D0000B0200088D4700080B0200080B02000805
:1000E0000B0200080B0200080B0200080B020008BC
:1000F0000B0200080B0200080B0200080B020008AC
:100100000B0200080B020008B54100080B020008B2
:100110000B0200080B0200080B0200080B0200088B
:100120000B0200080B0200080B0200080B0200087B
:1001300000F002F800F04DF80AA090E8000C8244AC
:100140008344AAF10107DA4501D100F042F8AFF289
:10015000090EBAE80F0013F0010F18BFFB1A43F0A5
:10016000010318473860000058600000103A24BFAF
:1001700078C878C1FAD8520724BF30C830C144BF0C
:1001800004680C607047000000230024002500264E
:10019000103A28BF78C1FBD8520728BF30C148BFEA
:1001A0000B607047662905F01987002070471FB55E
:1001B00000F014FC04000020002104F0D3FE401CD9
:1001C00060600020002104F0B7FEE0601FBD10B5A4
:1001D00010BD00F04DFD1146FFF7E9FF04F006FDEC
:1001E00000F0F0FF03B4FFF7F2FF03BC01F05EFA8A
:1001F0000948804709480047FEE7FEE7FEE7FEE7BB
:10020000FEE7FEE7FEE7FEE7FEE7FEE704480549F6
:10021000054A064B7047000099410008310100086B
:10022000A0040020A00A0020A0060020A0060020B4
:100230000FB41CB50C0007AA009001D02044401E4A
:10024000074B7B4469460190069800F032FB002C76
:1002500003D06946002000F03FFB1CBC5DF814FB96
:100260009D0600002DE9F0474FF0000A894604463C
:10027000C0F820A02046E1688847002876D02528CD
:1002800006D0D4E901219047206A401C2062F1E7A2
:10029000E168204600258847C4F81CA006460027D0
:1002A000C4F818A02A2E09D0304604F028FB38B331
:1002B00004EB8708303EC8F8186019E059F8041BB1
:1002C000204604EB87029161E1688847012F0646CA
:1002D00018D1E069002820DA25F020051DE0D8F8C3
:1002E000180000EB800006EB40003038C8F818001A
:1002F0002046E1688847064604F001FB0028EED15D
:10030000012F0AD02E2E08D12046E16888477F1C95
:100310000646022F45F02005C4DBA069002803DA59
:10032000404245F00105A061E80701D025F0100525
:10033000B6B1A6F14100192802D8203645F400656F
:100340004A463146204625604D46FFF72BFF58B1FF
:10035000012806D0ED1D25F0070000F1080989E706
:1003600004E005F1040985E730468AE7206ABDE824
:10037000F0870000014A00F00FBB000038000020A9
:1003800040EA0103024630B59B0710D14FF001341B
:1003900000E008C208C91D1B9D4315EAC41FF8D020
:1003A00013F0FF0102F8011B0DD01B0AF8E711F84A
:1003B000013B002B02F8013B05D011F8013B002B5B
:1003C00002F8013BF3D130BD10B5431C02E010F838
:1003D000011B71B18107FAD14FF0013202C88C1AAA
:1003E0008C4314EAC211F9D0C01A0A0603D0C01E09
:1003F00010BDC01A10BD0A0401D0801E10BD090234
:10040000FCD0401E10BD421E12F8013F002BFBD154
:1004100011F8013B002B02F8013BF9D170474FF076
:10042000000200B5134694469646203922BFA0E844
:100430000C50A0E80C50B1F12001BFF4F7AF090750
:1004400028BFA0E80C5048BF0CC05DF804EB890041
:1004500028BF40F8042B08BF704748BF20F8022B84
:1004600011F0804F18BF00F8012B7047704770479C
:10047000704710B500F0B6FA006810BD10B504461C
:1004800000F0B0FA046010BD70472DE9FF4F0C4634
:100490001E464FF0FF378BB0D2E90001DDF86080D7
:1004A0000A908A46C1F30A5505B93D46002108461F
:1004B0004FF00000BAF1000F00F4400005DA00EB45
:1004C00080004FF4400101EA50004FEA9059B9F121
:1004D000010F00DDB9460A9850EA4A000ED044F6F2
:1004E0001050A5F2FF3545432F14B8F1000F1ED070
:1004F0007542291E1EDDC9F100021CE0B8F1010F92
:100500004FF0000001D0302103E0F24305E0215418
:10051000401CB042FBDB30460022002121540B99E5
:10052000C1F80880C1E900200FB0BDE8F08FBD1B05
:100530006D1CDEE74A4600DA694206A800F004FBBB
:1005400006AB93E8070003AB83E8070050460A991F
:1005500001F0D4F88DE80700A0F500501F38009096
:100560000398002D0ADD42F21F014A460844002389
:1005700003A90390684601F07FFB09E0A0F5005055
:100580004A461F38002303A90390684601F09EFBEA
:100590008DE807000004000C03D04FF0FF30410845
:1005A00000E01046B8F1000F03D00022009215467B
:1005B0001EE0751E05D400F019FA303262556D1E2A
:1005C000F9D5B3460122084302D000227F1C04E083
:1005D0002078302801D100227F1E002A099784D07C
:1005E0001DE0112D07DA00F001FA303262556D1C62
:1005F00050EA0102F5D1084302D00098C8B10EE0DC
:100600000021681E05E0235C625C63542254401E96
:10061000491C8142F7DBAB46A81B401E0990002015
:1006200004F80B000B98099AC0F80880C0E9002B69
:100630007AE711264FF0000857E72DE9F04F88467A
:100640000446D21D22F0070191B0D1E90001CDE9A5
:100650000A0104F0A2F802460B98C00F01D02D2029
:1006600007E02068810701D52B2002E0202101EA64
:10067000C000032A099001D0072A05DB0346414642
:10068000204600F001FA0BE12078800601D5E069F0
:1006900000E00620B8F1650F814606D0B8F1660F7C
:1006A00018D0B8F1670F70D131E00020B9F1110F07
:1006B000009001DB112301E009F101030AAA01A95D
:1006C0000CA8FFF7E2FEDDE90C70002609F1010538
:1006D000834647E001204B4600904FF000470AAAAE
:1006E00001A90CA8FFF7D1FEDDE90DB00C995D461C
:1006F000002610B909F101000D18B9EB050003D46B
:10070000C0F1FF3609F10105A5EB09002BE0B9F1B5
:10071000010F01DA4FF001090020B9F1110F00902B
:10072000484601DD112300E003460AAA01A90CA8EE
:10073000FFF7ABFEDDE90C704D46002683462078BE
:1007400000070AD4AB4500DA5D4601A8012D04DD9F
:10075000411911F8011C302907D04F4502DA17F171
:10076000040F04DA012082460FE06D1EEEE7002F31
:1007700002DCED1B3E4403E0781CA84200DD7D1C3A
:10078000B81B00F1010A4FF000472078000703D49E
:10079000AA4501DB4FF0FF3A0021B7F1004F0DF100
:1007A00043088DF8431024D002202B23002F01DAB8
:1007B0007F422D230A21021EA0F1010000DC5FB15F
:1007C00097FBF1FC97FBF1F201FB1C7C17460CF147
:1007D000300C08F801CDEEE7A8F101000370218884
:1007E000090501D5452100E06521A0F1010800F8C7
:1007F000011C09980FA9A1EB0807FF1D00B10120FA
:10080000411901EBEA70A1693844081A401EA06141
:100810002078C00602D42046AFF30080099828B1A2
:10082000D4E901219047206A401C20622078C0064C
:1008300022D52046AFF300801EE0002E04DBB34536
:1008400002DD01A8805D00E03020D4E9012190475D
:10085000206A401C2062761CAAF101005FEA000AAF
:100860000AD100F0BBF8C0680168405CD4E90121FE
:100870009047206A401C2062281EA5F10105DCDC9F
:1008800007E0D4E9012118F8010B9047206A401CC9
:100890002062381EA7F10107F3DC2046AFF3008089
:1008A000032011B041E6000001694A1C026108788A
:1008B000704700B58FB0CDE90131002105910549A0
:1008C0007944CDE9031011466846FFF7CBFC0FB021
:1008D00000BD0000E5FFFFFF0A6802F8010B0A6097
:1008E0007047D1E900239A4202D2531C0B6010706A
:1008F000704700000FB4002300B589B00CA9009127
:100900000B99CB60214B7B440693214B7B4407938F
:1009100004236FF00042CDE901321E4A7A446B464F
:1009200008920246002005F0BBFB09B05DF814FBFD
:1009300070B506464FF0FF3015460C46324686B07D
:100940000091CDE9010169460020049004A8FFF759
:10095000D1FF02460498211825B108B1084600E0ED
:1009600020462860049800280DD0002A02DD009857
:10097000884208D03246081B69460094CDE901043C
:1009800004A8FFF7B7FF06B070BD0000FF0100002C
:1009900017020000570100002DE9F04115460E46F0
:1009A000040002D12C6804B90BA4204600F04EF9D3
:1009B0000444207870B127463146384600F036F9B5
:1009C0000444207810B1002004F8010B38462C6054
:1009D000BDE8F0810027F9E70000000000487047FB
:1009E00060040020004870474004002030B5B0F19A
:1009F0000A024FEA900E71F100034EEA817EB0EBDD
:100A00000E0061EB91014FEA101E4EEA017E10EBE1
:100A10000E0041EB11114FEA102E4EEA016E10EB61
:100A20000E0041EB11214FEA104E4EEA014E10EB41
:100A30000E0041EB1141401841F100014FEAD00096
:100A400040EA41704FEAD10110EB80054FEA810482
:100A500044EA907444EB01046D1944EB0404521B06
:100A6000A3414FF0000348BF0A3200D530BD401CFF
:100A700041F1000130BD10B5044600F01FF90068D7
:100A8000005D00F0010010BD2DE9F0411F46044655
:100A900003260168072A01F4006004DB08B116A5EB
:100AA00005E016A503E008B115A500E015A521F0A5
:100AB00010002060A069C01EA0610FB1401EA0619F
:100AC0002046AFF300804FB1D4E90121384690476A
:100AD000206A401C2062C01C206206E0206AFAE7FF
:100AE000D4E9012115F8010B9047761EF8D2204673
:100AF000AFF30080BDE8F0814E414E006E616E00A4
:100B0000494E4600696E6600426842B1016811F8BC
:100B1000013B23B1521EC0E9001218467047012163
:100B2000C160881E704742685AB1C368016843B902
:100B300083688B4205D0491E521CC0E90012002078
:100B400070474FF0FF3070472DE9F0478146164659
:100B50008AB0354878440DC88DE80D003248784495
:100B6000801C03AC0DC884E80D0041F69B3008449E
:100B7000372190FBF1F290FBF1F5A5F1800501FB27
:100B800012041B3C02D56442012000E00020DFF883
:100B900098A080460027FA44AAF1BE0A0EE0E007BA
:100BA0000AD03246684607EB470101230AEB810170
:100BB00001F08CF88DE8070064107F1C002CEED14A
:100BC000194F7F44AE3F19E0E80715D007EB04103A
:100BD0000DF1180A90E80E008AE80E00C068F04295
:100BE00001D1981908903246012306A903A801F003
:100BF0006DF803AB83E807006D10641C002DE3D192
:100C00004FF0010332466946B8F1000F03A802D045
:100C100001F032F801E001F059F8C9E90001C9F822
:100C200008200AB0BDE8F0872C56000030B5034616
:100C30001D781DB10A4603E0AC4201D1181A30BD3F
:100C400012F8014B002CF7D15B1CF1E730B50346DD
:100C50001D783DB10A4612F8014B1CB1AC42FAD1E5
:100C60005B1CF5E7181A30BD0048704740040020AF
:100C70007546FFF7F9FFAE4605006946534620F07A
:100C80000700854618B020B5FFF7C0FABDE8204040
:100C90004FF000064FF000074FF000084FF0000B38
:100CA00021F00701AC46ACE8C009ACE8C009ACE8EB
:100CB000C009ACE8C0098D467047000010B5FFF7C9
:100CC0008DFE001D10BD00BF9D4200002DE9FF4FAD
:100CD00006468BB00878FF2806D0491C2D2805D081
:100CE00000244FF0000908E000200CE00124F8E7A0
:100CF00009EB8903491C00EB43090878FF28F7D169
:100D000014B1C9F100008146107800252C46AA468E
:100D100029462D2801D02B2804D1521C2D2813D070
:100D2000002082468B461078FF280FD04FF0000C31
:100D30000A21521CA5FB017804FB018105FB0C1163
:100D4000C5194BEB0104EEE70120EAE70021084654
:100D50004FF00000BAF1000F02D000EB8000400815
:100D6000C0F38157012F01DD4FF0FF370E9955EA8F
:100D7000040009EB01080BD04FF0020918F5FA7FC7
:100D800016DA4FEACA70002F706008DD012007E014
:100D90004FEACA70C6E900B00FB0BDE8F08F00207E
:100DA0003060FFF71FFEC0F800901821084616E0DB
:100DB000B8F5FA7F18DD002F02DAF748784401E031
:100DC000F6487844D0E90010C6E9001040EACA703D
:100DD0007060FFF707FEC0F80090142108460FB0BE
:100DE000BDE8F04F05F0F7B8002108464FF00000CD
:100DF000B8F10001099002DAC7F1000200E03A46BA
:100E000001DAC8F1000106A8FFF79EFE06AB93E8E1
:100E1000070003AB83E8070044F23E005BEA0401ED
:100E20000090584604D144F21E012C465D460091C4
:100E3000210C0904014306D10099240444EA154415
:100E40002D041039009104F07F41014306D100992F
:100E5000240244EA15642D020839009104F070411F
:100E6000014306D10099240144EA15742D01091F9C
:100E7000009104F04041014306D10099A40044EAE6
:100E80009574AD00891E009104F00041084304D11F
:100E900000986D196441401E00904FF001033A46DE
:100EA0006846B8F1000FCDE9014503A902DD00F065
:100EB00022FF01E000F0F5FEBAF1000F04460D46F6
:100EC00001D084F00044002108464FF00000099949
:100ED00040F2FF77484010F00C0F07D124F000409B
:100EE000284303D0C4F30A50B84212D1FFF77AFD69
:100EF000C0F80090C4F30A50B8420AD1A848784418
:100F0000D0E90010C6E9001004F000410843706009
:100F100042E7C6E900543FE72DE9FF4F1F464FF077
:100F2000000A4FF0FF38454691B0D7E90146CDF8A9
:100F30003CA0FFF753FDC0680168405C1090B969A0
:100F400012986D1C8847396A814688470028F6D177
:100F5000B9F1FF3F0AD0002E24F4D06411DDB9F1BD
:100F60002B0F08D0B9F12D0F0BD102E0404615B080
:100F700013E744F48064B96912986D1C8847761EA3
:100F80008146600504A901D52D2000E02B20002E0C
:100F900001F1010B0DF130088DF810003FDDB9F1C2
:100FA000690F08D0B9F1490F05D0B9F16E0F02D021
:100FB000B9F14E0F1CD13B4601A8009580E85002C4
:100FC000DDE912126FF0020005F06EF8C11CCED1FF
:100FD0000EE0B96912986D1C884781461398761EF9
:100FE00044F4007405600F98401C002E0F9016DD2D
:100FF000B9F1300FEDD0B9F1780F02D0B9F1580F37
:101000000DD10F9801280AD13B46CDE90054DDE906
:101010001212001F029605F045F8C11CA7D11099C5
:1010200089453ED144F0800406E01399681CAAF17A
:10103000010A44F400740860B9696D1C1298761EA8
:10104000884730288146F0D02BE01099894505D19A
:10105000200603D4761E44F0800418E0484603F0CE
:101060004EFC08B3761E0DF123018B4544F4007449
:1010700008D2A9F130000BF8010B200607D5AAF120
:10108000010003E0200602D40AF101008246A00517
:1010900002D51399681C0860B96912986D1C8847BD
:1010A0008146002ED1DC53E0002E51DDB9F1650FF1
:1010B00002D0B9F1450F4BD1A00549D5B9696D1CD6
:1010C0001298761E24F440748847002E81460CDD69
:1010D0002B2804D0B9F12D0F07D144F48074B969DD
:1010E00012986D1C8847761E8146E00501D52D219A
:1010F00000E02B2108F8011BCDF8008021E0761ECE
:101100000DF13901884544F400740CD2A9F1300086
:1011100010F0FF0088F8000002D10099884509D935
:1011200008F1010806E0E00501D51E4801E042F2A1
:101130000F708246B96912986D1C884781461398D2
:101140000560002E04DD484603F0D9FB0028D6D107
:10115000F96912988847FF2053468BF8000088F8F9
:10116000000000200A900B9004AA0CA90AA8FFF71F
:10117000ADFDA00502D46FF00100F8E614F0240FD5
:1011800012D0E0071CD13868DDE90A12031D3B606C
:101190000068C0E9001213E004540000F653000098
:1011A000BA520000F1D8FFFF0AA9684603F036FBE7
:1011B000E00705D13868009A011D396000680260B7
:1011C0002846D4E610B50446AFF300802046BDE8BB
:1011D0001040FFF707B800004FF0013C50F8042B17
:1011E00051F8043B9A4221D1A2EB0C03934313EA3A
:1011F000CC1317D150F8042B51F8043B9A4215D167
:10120000A2EB0C03934313EACC130BD150F8042B3D
:1012100051F8043B9A4209D1A2EB0C03934313EA21
:10122000CC13DBD04FF00000704700BFD01A01BADA
:10123000B1FA81F101F0180122FA01F0CB40C1F1BD
:101240002001DBB2C0B2C01A2CFA01F3D11A9143CB
:1012500011EAC311E6D170472DE9FF4F1F464FF049
:101260003C0987B04FF00042DDE9141001F101089C
:10127000DDF858A002EA4050039000200590834614
:10128000054604460490B969461E08988847AAF1A5
:10129000010A0290BAF1000F3BDD02982E2815D00A
:1012A000102100F01CFA00282EDB4FF0010B0599ED
:1012B000014317D0B9F1000F0BDB4A46C11700F00C
:1012C000FBF905430C43A9F1040905E00120049052
:1012D0000BE008B145F0010501200590049820B904
:1012E000361D02E0049800B1361FB969089808F16C
:1012F00001088847BBF1000FAAF1010A0290C9D08A
:101300000999C1F80080C5E70298702808D05028D4
:1013100006D0F96908988847BBF1000F14D04FE058
:10132000002002900120BBF1000F049009D0B969A0
:10133000089808F101088847AAF10109B9F1000FDE
:1013400007DCF969089888476FF001000BB0BDE829
:10135000F08F2B2804D02D280CD14FF0FF300490B3
:10136000B969089808F101088847A9F10109B9F19C
:10137000000FE6DD411CE4D00A2100F0B0F900289E
:10138000DFDB029908F1010801EB810100EB41006C
:101390000290B969089888470A2100F0A0F9099AD3
:1013A000A9F10109B9F1000FC2F8008001DD0028A0
:1013B000E7DAF969089888470499029800FB016602
:1013C00055EA040004D004F04041090002D006E0D0
:1013D000039898E0A40044EA9574AD00B61E04F0AA
:1013E0000041080002D16D196441761E159810F075
:1013F000240F03D04FF00B095C4803E04FF028099D
:101400006FF07D008246564507DAAAEB0601894453
:10141000B9F1410F01DD4FF0410901200021A9F18F
:10142000010200F049F9024628400B4621400843DA
:1014300001D0012100E00021501E029143F1FF3153
:1014400028402140084301D0012000E000200299FB
:10145000834651EA0B014FD0002108464FF00000AF
:10146000039900F4400039B100EB80004FF44001D3
:1014700000EBD07001EA60008015012802DD4FF01A
:10148000FF3000E013D0401C36D0029860B3BBF1AF
:10149000000F0CD14A460120002100F00DF9284030
:1014A0002140084301D0012000E00020E0B10120EC
:1014B0004A46002100F000F9034640190A466141FE
:1014C0002D1A8C4111D3B9F1400F09DD159810F098
:1014D000240F02D0AAF1340603E0AAF1170600E0B7
:1014E000761C00254FF0004406E05B1E42F1FF32FF
:1014F00020EA030521EA0204CAF10100B04206DA3B
:101500001B49039808430190002000900EE0039AC5
:10151000C4F3D321E80A0A43164940EA44500A4377
:101520003146CDE90002684603F0DEF9159810F067
:10153000240F0BD01598C00715D13868DDE90012CB
:10154000031D3B600068C0E900120CE002A8694678
:1015500003F064F91598C00705D13868029A011D97
:101560003960006802604046F0E6000002FCFFFFC0
:101570000000F07F0000F03F2DE9FF4F92461D462E
:1015800085B04FF00041DDE9124BDDE914727F1E9A
:1015900001EA4B50414940F0FF4940EA010800216F
:1015A00022F020004928049102D04E2828D04CE097
:1015B0003BA0012607C88DE80700A9690698641CAE
:1015C00088477F1E014606D41DF8060018B121F099
:1015D000200181420BD0E96906988847032E34D058
:1015E000082E32D06FF0010009B0BDE8F08F761CF4
:1015F000032E01D0082EE0D1601CCAF80000DCE701
:10160000A9690698641C88477F1E2AD420F0200010
:10161000412826D1A9690698641C88477F1E20D4DA
:1016200020F020004E281CD1A9690698641C884728
:101630007F1E48F4002849F48009CAF8004001D40C
:10164000282806D0E969069888475FEACB7012D04F
:1016500022E0A9690698641C88477F1E01D40028EF
:1016600003DAE96906988847BCE72928F1D1641CA8
:10167000CAF80040E9E71BF0240F07D02868049956
:10168000031D2B600068C0E9001805E02868021DF2
:101690002A600068C0F800902046A5E70000F07FAF
:1016A000494E46494E49545900000000014918204E
:1016B000ABBEFEE726000200B2F120030AD5C2F15C
:1016C000200301FA02F120FA03F300FA02F041EAE2
:1016D0000301704700FA03F14FF0000070473A2809
:1016E00000D2303820F02002412A01D3A2F1370085
:1016F000884201D34FF0FF30704770475FEA400CDB
:1017000008BF91F0000F4FEA8C234FEAC12243EA51
:1017100051514FEA1C5018BF00F5F0404FEA30001D
:1017200018BF41F000415FEA6C5C00F02980BCF119
:10173000FF3F08BF40F080407047130C06BF120403
:101740004FF0100C4FF0000C130E04BF12020CF1FE
:10175000080C130F04BF12010CF1040C930F04BF0B
:1017600092000CF1020CD30F04BF52000CF1010CDB
:1017700011464FF00002A0F11F00A0EB0C007047D3
:1017800011F0004F08BF704731F000413FF4D5AF72
:101790000B0C06BF09044FF0100C4FF0000C0B0EA1
:1017A00004BF09020CF1080C0B0F04BF09010CF176
:1017B000040C8B0F04BF89000CF1020CCB0F04BF8B
:1017C00049000CF1010CCCF12003A0EB0C0022FA33
:1017D00003F302FA0CF241EA030100F10100704741
:1017E00020F07F4C80EA030023F07F47ACEB070337
:1017F00003F57C5300F0004003F1FF032DE980491D
:101800004FEA154B09B44FEA144325EA0B4E24EA7C
:1018100003480FF2042606EB132749083E785FEAD7
:10182000320203FB0667C7F5000707FB06F64FEA1F
:1018300054374FEAD64606F1020607FB066CCCF198
:10184000005C4FEA1C472CEA074C07FB06F40CFB34
:1018500006F504EB15464FEA961634BF00204FF00C
:1018600000404FEAD13706FB07FC4FEA1C4C0CFB4B
:101870000BF7D21B03FB0CF761EB07010CFB0EF718
:10188000B0EB074072EB17420CFB08F734BFA2EB3A
:101890000742B2EB074261EB17414FEA0C444FEAB3
:1018A000910706FB07FC4FEA1C4C0CFB0BF7B0EB57
:1018B000C74072EB573203FB0CF734BFA2EBC742B1
:1018C000B2EBC74261EB57310CFB0EF7B0EBC70030
:1018D00072EB57720CFB08F734BFA2EBC702B2EBF6
:1018E000C70261EB5771039F4FEA816141EA921190
:1018F00004EBCC044FEAD1374FEA826206FB07FCC7
:1019000042EA90124FEA80604FEA1C4C0CFB0BF746
:10191000D21B03FB0CF761EB07010CFB0EF7B0EBDE
:10192000074072EB17420CFB08F734BFA2EB0742EB
:10193000B2EB074261EB17414FEA8C554FEA910732
:1019400004EB9C2406FB07FC4FEA1C4C0CFB0BF73A
:10195000B0EBC74072EB573203FB0CF734BFA2EB7E
:10196000C742B2EBC74261EB57310CFB0EF7B0EB4D
:10197000C70072EB57720CFB08F734BFA2EBC7022B
:10198000B2EBC70261EB577115EB4C254FEA816151
:1019900041EA92114FEA82624FEAD13742EA90124D
:1019A00006FB07FC44F100044FEA80604FEA1C4C40
:1019B0000CFB0BF7D21B03FB0CF761EB07010CFBD5
:1019C0000EF7B0EB074072EB17420CFB08F734BF81
:1019D000A2EB0742B2EB074261EB174115EB1C1576
:1019E0004FEA813141EA92414FEA823242EA904223
:1019F0004FEA80304FEA0C7644F1000448EA034392
:101A00004EEA0B484FF0000EB2EB080C71EB0307E7
:101A100024BF624639464EEB0E0E4FF0000B001805
:101A2000524149414BEB0B0BB2EB080C71EB030736
:101A30007BF1000B24BF624639464EEB0E0E4FF091
:101A4000000B0018524149414BEB0B0BB2EB080C59
:101A500071EB03077BF1000B24BF624639464EEB66
:101A60000E0E51EA020718BF46F0010616EB0E767D
:101A700055F1000254F1000103D5BDE88901BDE82C
:101A80000088BDE88901BDE80048B619524141EB24
:101A90000101A3F10103704780807F7E7D7C7B7A0A
:101AA0007978777676757473727171706F6E6E6D0A
:101AB0006C6C6B6A6A6968686766666564646363B0
:101AC00062616160605F5F5E5E5D5D5C5C5B5B5A36
:101AD0005A595958585757565655555554545353A3
:101AE00052525251515050504F4F4F4E4E4D4D4DFE
:101AF0004C4C4C4B4B4B4A4A4A4949494848484749
:101B00004747474646464545454444444443434386
:101B1000434242424241414146EA0646A3F57053E0
:101B20004FEA164646EA42564FEAD22242EA41526C
:101B300010B54FEAD121A3F1010300F02FF820F0F6
:101B4000004000F1020C00F0004701EB005011468C
:101B5000BCF5006F40EA070000D210BDBAF1000FDB
:101B60000AD01CB503B44FF004004FF004014FF04D
:101B700000000FBCBDE810404FF00001BBF1010FA9
:101B8000B9BF04484FF0FF310348002140EA070085
:101B900010BD00BFFFFFEF7F0000F07F002B9C46D1
:101BA00030D477002BD01CB54FEA370703B44FF081
:101BB00010004FF01001BAF1000F06D0BCF1000F79
:101BC000DCBF40F0080040F008014FF000000FBCFF
:101BD000BDE810400BF1010BBBF1010F08BF5FEA3C
:101BE000170722BF12F1010211F101014FF000416C
:101BF00043F1000300F0004043EA00007047F9D3CE
:101C00005708D0E746EA064613F1400F4FEA16465A
:101C10001FDD13F1200FDFBF16430A4600212033DA
:101C20005B42BED0C3F1200746EA064602FA07F738
:101C30004FEA164646EA0706C3F1200722FA03F2E6
:101C400001FA07F721FA03F14FF0000342EA070215
:101C5000A7E746EA020646EA06464FEA164646EA7D
:101C60000106BCBF46EA0646360C4FF000034FF0B3
:101C700000024FF0000194E72DE9804C9A4693460C
:101C800070B491E8380007C831EA400C48BF34EA24
:101C9000430C03D5FFF7A4FDFFF780FFF0BCBDE8C0
:101CA000008C2DE9804C9A46934670B491E8380038
:101CB00007C831EA400C48BF34EA430C03D5FFF7AC
:101CC0008FFDFFF729FFF0BCBDE8008C2DE9804CAB
:101CD0009A46934670B491E8380007C810F0804FD8
:101CE00008BF13F0804F03D100F01AF8FFF756FF3A
:101CF000F0BCBDE8008C2DE9804C9A46934670B448
:101D000091E8380007C810F0804F08BF13F0804FEB
:101D100003D100F005F8FFF7FFFEF0BCBDE8008C32
:101D200020F07F4780EA030023F07F4C07EB0C0391
:101D3000A3F57C5300F00040A3F1FE0392F0000FE6
:101D400000F0B38095F0000F00F077802DE9014995
:101D50004FEA11404FEA144621EA004800FB06FC16
:101D600024EA064708FB06F607FB08F800FB07F71E
:101D700018EB06484CEB164C4FEA124B18EB074891
:101D80004FEA15464CEB174022EA0B4E0BFB06FCC4
:101D900025EA06470EFB06F607FB0EFE0BFB07F7D0
:101DA0001EEB064E4CEB164C4FF000061EEB074E9A
:101DB0004CEB174B18EB0B0840F1000018EB0E0B27
:101DC00058EB000840F100008F1A4FF000013CBFB3
:101DD000C943661B14BFB5EB040C00213CBFC943CB
:101DE000F61B4FEA17444EEA8E0E27EA04454FEAE7
:101DF0001C4704FB07622CEA074C05FB07F70CFBAA
:101E000005F604FB0CFC16EB074642EB174216EBFB
:101E10000C4642EB1C421BEB060658EB020241410A
:101E200046EA9E0601D5BDE80189B619524141EB4B
:101E30000101A3F10103BDE801894FEA14454FEA0E
:101E4000114724EA054621EA074C05FB07F406FB87
:101E500007F70CFB06F105FB0CFC11EB074144EB0B
:101E600017444FEA124711EB0C4144EB1C4422EAA1
:101E7000074C05FB07F206FB07F70CFB06F605FB14
:101E80000CFC16EB074642EB174216EB0C4642EBF6
:101E90001C456A1854F1000148BF7047B6195241F9
:101EA00041EB0101A3F10103704795F0000F37D01A
:101EB0004FEA11424FEA144721EA024624EA074C4E
:101EC00002FB07F106FB07F70CFB06F402FB0CFC18
:101ED00014EB074441EB17414FEA154714EB0C4450
:101EE00041EB1C4125EA074C02FB07F506FB07F70F
:101EF0000CFB06F602FB0CFC16EB074645EB174500
:101F000016EB0C4645EB1C42121951F1000148BF7B
:101F10007047B619524141EB0101A3F1010370472B
:101F20004FEA14454FEA114724EA054621EA074CD7
:101F300005FB07F106FB07F70CFB06F24FF0000666
:101F400005FB0CFC12EB074241EB174112EB0C4274
:101F500051EB1C4148BF7047921841EB0101A3F1BE
:101F600001037047FEE770470223002202F0CABD5A
:101F700010B501220021104602F082FD02480168DE
:101F800041F00101016010BD1404014010B50122AF
:101F90000021104602F074FD0248016841F0020180
:101FA000016010BD1404014070B5294D042128467C
:101FB00000F0BEFA40EA44040821284600F0B8FACE
:101FC00040EA440010F00301224806D001292CD039
:101FD000022930D003290FD133E01F4A92F814218F
:101FE000012A04D11C4AB2F80C21521C03E01A4AFF
:101FF000B2F80C21521E8281174A012382F8141173
:10200000418A0022491C4182B0F90C10B1F5E75F0A
:1020100002DA11F5E75F03DC0F4981F8173182819D
:10202000BDE87040042000F07BB90B4A92F81421FF
:10203000032ADCD1D6E7084A92F81421002AD6D127
:10204000D0E7054A92F81421022AD0D1CAE700004D
:1020500000100140EC020020EC01002070B5294D79
:102060000421284600F064FA40EA44040821284686
:1020700000F05EFA40EA440010F00301224806D066
:1020800001292CD0022930D003290FD133E01F4A77
:1020900092F81421012A04D11C4AB2F80C21521CD6
:1020A00003E01A4AB2F80C21521E8281174A01231A
:1020B00082F81411418A0022491C4182B0F90C10A7
:1020C000B1F5E75F02DA11F5E75F03DC0F4981F84C
:1020D00017318281BDE87040082000F021B90B4A19
:1020E00092F81421032ADCD1D6E7084A92F8142189
:1020F000002AD6D1D0E7054A92F81421022AD0D17D
:10210000CAE7000000100140EC020020EC010020B2
:1021100010B506220421002002F0B2FC024801683A
:1021200041F01001016010BD1404014010B5134CC2
:102130002068400608D506220421002002F0A0FCF9
:10214000206840F0400020602068800608D5072203
:102150000521032002F094FC206840F0200020605C
:102160002068000608D507220521032002F088FC1C
:10217000206840F08000206010BD00001404014081
:1021800010B590F821100022022905D004218163A6
:1021900080F82020012010BD01680B6823F00E0399
:1021A0000B6001680B6823F001030B6090F840306E
:1021B000C46B012101FA03F3636080F8211080F8F9
:1021C0002020104610BD00002DE9F05F90F821108E
:1021D0000024022903D004218163012485E00168E1
:1021E0000A6822F00E020A6001680A6822F0010201
:1021F0000A603F4E3E4FB215DFF8F4C0DFF8F090B2
:10220000DFF8ECA0DFF8E8B0DFF8E4E00168783F41
:1022100013011502ACF1640CA9F15009AAF13C0AB2
:10222000ABF1280BAEF1140E4FF48018B14227D950
:10223000B9420ED0614512D049451DD0514518D044
:10224000594518D0714501D1424615E0294EB14299
:1022500001D1012210E0274E1436B14201D11022E3
:102260000AE0244E2836B14206D0224A3C3291423E
:1022700001D11A4600E02A461E49091F0A602BE0D8
:10228000B94213D0614517D0494522D051451DD0E0
:1022900059451DD0714501D142461AE0B14202D1E3
:1022A0004FF0807215E0134EB14201D1012210E0CF
:1022B000104E1436B14201D110220AE00D4E2836DC
:1022C000B14206D00B4A3C32914201D11A4600E09D
:1022D0002A46074980394A60012180F821100021EF
:1022E00080F82010416B01B188472046BDE8F09F7F
:1022F000800002400804024070B5044600F022F954
:102300000546601C02D004480078044400F01AF925
:10231000401BA042FAD370BD280000207047000087
:10232000044910B50A68024202D00860FFF7F6FFC0
:1023300010BD0000140401402DE9F84FDFF8C891EA
:102340000024A9F1040B23460F2709F1040AABF17D
:10235000040ED1E00125A54006EA0502AA4276D185
:10236000DFF8A8C14E68A6EB0C0866452BD00DDC43
:10237000032E34D005DC36B3012E19D0022E2FD116
:102380001BE0112E16D0122E2AD119E0B8F5881FA5
:1023900019D006DCB8F5803F15D0B8F5801F1FD1E5
:1023A00011E0B8F5001F0ED0B8F5041F18D10AE0EF
:1023B000CB6815E0CB681B1D12E0CB6808330FE03B
:1023C000CB680C330CE08B682BB1012B4FF008036A
:1023D00003D0456104E0042302E0056100E000232E
:1023E000FF2A01D8064601E000F104064FEA840501
:1023F00001D9A5F12005D6F8008007FA05FC28EAE6
:102400000C0803FA05F548EA0508C6F800804D688F
:10241000ED0070D53E4DAE6946F00106AE61AD6986
:1024200024F0030605F0010500953A4D06EB050C76
:10243000DCF80850A607360F07FA06F825EA080563
:10244000DFF8D480404503D14FF0000825E052E08A
:10245000DFF8C880404502D14FF001081DE0DFF8E9
:10246000C080404502D14FF0020816E0DFF8B4808A
:10247000404502D14FF003080FE0DFF8AC80404543
:1024800002D14FF0040808E0DFF8A080404502D1F7
:102490004FF0050801E04FF0060808FA06F848EA90
:1024A0000508CCF808804D68D9F80060ED024D466B
:1024B00001D5164300E096432E604D68DAF80060BF
:1024C000AD02554601D5164300E096432E604D6897
:1024D000DBF80060AD035D4601D5164300E096438E
:1024E0002E604D68DEF80060ED03754601D5164399
:1024F00000E096432E60641C0A681646E2407FF4B2
:1025000029AFBDE8F88F0000080401400000111059
:10251000001002400000014000080140000C014092
:10252000001001400014014000180140001C01404F
:102530008068084000D0012070470AB101617047EF
:102540000904FBE70148806870470000280000206C
:102550000248816802781144816070472800002099
:10256000074810B5016841F010010160032000F038
:1025700075F80F2000F006F800F024F8002010BDD8
:102580000020024070B50D4D04464FF47A71287852
:10259000B1FBF0F00A490968B1FBF0F000F0DCFA99
:1025A00048B9102C07D200222146501E00F036F800
:1025B00000206C6070BD012070BD0000280000206C
:1025C000340000200C4808B5816941F001018161A7
:1025D000816901F001010091C16941F08051C1613F
:1025E000C06900F0805000900448416821F0E0612B
:1025F00041F00071416008BD001002400000014040
:10260000002809DB00F01F020121914040098000F1
:1026100000F1E020C0F8001170470000F0B40E4B4C
:102620001B680C46C3F30223C3F10705042D00D930
:102630000425191D072901D2002300E0DB1E012615
:1026400006FA05F1491E214099409E40761E16402B
:102650003143F0BC02F0C2B80CED00E0064900F0D6
:10266000070208684FF6FF03184040EA0220034AB9
:1026700010430860704700000CED00E00000FA0510
:102680002DE9F0470F46050061D0434E306800F059
:102690000700B84209D2306820F0070038433060A4
:1026A000306800F00700B84251D128683B4C8107E0
:1026B00012D5400703D5606840F4E0606060287878
:1026C000000703D5606840F4605060606068A968E6
:1026D00020F0F000084360602878C00728D06868C0
:1026E000012810D02168022810D0890700292EDA8D
:1026F000616821F0030101436160FFF723FF804619
:1027000041F288390DE021688903EFE78901EDE79F
:10271000FFF718FFA0EB0801494502D90320BDE8E7
:10272000F0876068696800F00C00B0EB810FEFD1B2
:10273000306800F00700B8420BD9306820F007007D
:1027400038433060306800F00700B84201D0012003
:10275000E5E72878400705D56068E96820F4E0607F
:10276000084360602878000706D56068296920F46E
:10277000605040EAC100606000F038F86168084AC3
:10278000C1F30311515CC84006490860064800685F
:10279000FFF7F8FE0020C2E70020024000100240D0
:1027A000EE600008340000202C0000200448054999
:1027B00000684968044AC1F30221515CC84070476F
:1027C0003400002000100240FE6000080448054963
:1027D00000684968044AC1F3C221515CC84070478F
:1027E0003400002000100240FE6000080E4A5168CC
:1027F0000E4801F00C03042B11D0082B0FD10C480C
:10280000C1F38343C903C05C0AD55168084AC1F3C8
:102810004041921E515C054A5043B0FBF1F07047B5
:1028200004494843704700000010024000127A003B
:10283000DE60000800093D002DE9F84F040070D06B
:102840002078C04DC00749D06868C0F381000128D6
:1028500007D06868C0F38100022809D16868C00306
:1028600006D52868800339D560680028E7D035E0B0
:102870006068B0F5803F0BD010B1B0F5A02F11D03B
:10288000286820F480302860286820F4802002E046
:10289000286840F480302860606890B1FFF752FEED
:1028A00006460AE0286840F480202860F0E700BF70
:1028B000FFF748FE801B642873D828688003F7D58B
:1028C0000CE0FFF73FFE064605E000BFFFF73AFECB
:1028D000801B6428F0D828688003F7D420789A4EAB
:1028E00080074FF001094FF0000839D5686810F0F3
:1028F0000C0F07D06868C0F38100022809D168680E
:10290000C00306D42868800714D52069012808D19F
:1029100010E02069B0B1C6F80090FFF713FE07463B
:1029200005E00AE1FFF70EFEC01B0228C4D82868A4
:102930008007F7D52868616920F0F80040EAC100F7
:1029400028600DE0C6F80080FFF7FCFD074604E0B4
:10295000FFF7F8FDC01B022823D828688007F7D4AA
:10296000207800072CD57948A169D9B1C0F800902A
:10297000FFF7E8FD074604E0FFF7E4FDC01B02286F
:102980000FD8686A8007F7D571484FF4FA5100688C
:10299000B0FBF1F0009000BF0098411E0091FAD208
:1029A0000EE080E0C0F80080FFF7CCFD074604E0B1
:1029B000FFF7C8FDC01B022875D8686A8007F7D4E6
:1029C0002078400760D5E8690027C00008D4E8698E
:1029D00040F08050E861E869012700F080500090E5
:1029E0005C480168C90513D40168834641F48071CD
:1029F0000160FFF7A7FD824606E000BFFFF7A2FDDA
:102A0000A0EB0A0064284ED8DBF80000C005F5D51D
:102A1000E06801280AD008B1052813D0286A20F000
:102A200001002862286A20F0040002E0286A40F0D1
:102A300001002862E06841F2883B98B1FFF782FD0F
:102A400082460BE0286A40F004002862EEE700BFEF
:102A5000FFF778FDA0EB0A0159455AD8286A80078C
:102A6000F6D50CE0FFF76EFD824605E0FFF76AFD44
:102A7000A0EB0A0159454CD8286A8007F6D41FB14B
:102A8000E86920F08050E861E06988B36968C1F3C3
:102A90008101022944D00228C6F8608004D0FFF7E3
:102AA00051FD044638E034E0FFF74CFD074604E0F2
:102AB000FFF748FDC01B02282BD828688001F7D4F7
:102AC000206AB0F5803F05D16868A16820F4003025
:102AD00008436860D4E908010843696821F4741167
:102AE00008436860C6F86090FFF72CFD044606E0D6
:102AF00025E000BFFFF726FD001B022809D8286843
:102B00008001F7D51BE000BFFFF71CFD001B02286A
:102B100002D90320BDE8F88F28688001F4D40EE0C4
:102B20000128F7D06868226A00F48031914204D10C
:102B3000616A00F47010884201D00120EAE70020A9
:102B4000E8E70000001002400000424280044242D8
:102B5000340000200070004010B5401EB0F1807FAE
:102B600001D3012010BD4FF0E02460610F216017F8
:102B700001F034FE0020A06107202061002010BD7C
:102B80007047704770B590F83C20012A2CD0012482
:102B900080F83C40022280F83D2003685A689D6816
:102BA00022F070060A6832435A60104B02689A425B
:102BB0000ED00F4B9A420BD0B2F1804F08D00D4B84
:102BC0009A4205D00C4B9A4202D00C4B9A4204D147
:102BD000496825F080031943916080F83D40002149
:102BE00080F83C10084670BD022070BD002C0140EA
:102BF000003401400004004000080040000C004088
:102C000010B5040003D094F83D0010B107E0012096
:102C100010BD002084F83C00204600F01FF8022080
:102C200084F83D00211D206801F0CAFA012084F8D3
:102C3000460084F83E0084F83F0084F8400084F8A1
:102C4000410084F8420084F8430084F8440084F88A
:102C5000450084F83D00002010BD000000B585B09F
:102C600000210091019102910391244A01682448B6
:102C700091421CD1816941F400618161816901F453
:102C800000610491816941F00401816180696946B4
:102C900000F004000490901500901A48FFF74CFBD8
:102CA000002211461B20FFF7B9FC1B2010E0164A3A
:102CB000914211D1C16941F00401C161C069002292
:102CC00000F00400049011461E20FFF7A7FC1E2010
:102CD000FFF796FC05B000BD0C4A9142FAD1C169DC
:102CE00041F00801C161C069002200F008000490B1
:102CF00011463220FFF792FC3220E9E7002C014018
:102D0000001002400008014000080040000C004094
:102D100090F83D10012901D001207047022180F870
:102D20003D100168CA6842F00102CA6000680E499D
:102D300088420ED00D4988420BD0B0F1804F08D0A8
:102D40000B49884205D00B49884202D00A49884283
:102D500004D1816801F00701062903D0016841F020
:102D60000101016000207047002C01400034014047
:102D70000004004000080040000C004070B504460C
:102D800090F83C000025012817D0012684F83C600B
:102D9000022084F83D002068826822F0770222F445
:102DA0007F4282600868502838D00DDC20284FD040
:102DB00005DC90B3102811D14AE0022070BD302804
:102DC00046D040280AD13BE060282FD070280DD093
:102DD000B0F5805F03D0B0F5005F12D0012584F814
:102DE0003D60002084F83C00284670BDCB68D1E9E6
:102DF0000121206801F03FFA2068816841F07701E5
:102E000009E0CB68D1E90121206801F034FA20689B
:102E1000816841F480418160E1E719E0CA6849684E
:102E2000206801F0FDFA5021206806E0CA68496870
:102E3000206801F03DFB6021206801F026FACEE712
:102E4000CA684968206801F0EBFA40212068F4E77D
:102E5000226801461046F0E770B50546007F01285C
:102E600022D1254C207870B101281DD1002128469F
:102E700000F072FCA060296800264E6261688842FA
:102E800013D9401A15E00021284600F065FC606067
:102E9000012020702868016A21F00A010162286877
:102EA000016A41F00201016270BD4FF6FF72511AD2
:102EB0000844E06002F062FB104A114B02F0AEFBE6
:102EC0004FF0FF3203F0BEF802F014FB81B20D4860
:102ED0009629018000D9068026702868016A21F0B1
:102EE0000A0101622868016A016207480068C16836
:102EF00021F00201C16070BD180000209CC420B008
:102F00007268A13F140000203C0000202DE9F04130
:102F1000054690F83C0000260C46012810D0012000
:102F200085F83C0072B1042A1CD0082A2CD00C2A47
:102F300050D00126002085F83C003046BDE8F081E5
:102F40000220FBE7D4E90012E368286801F07AFA6E
:102F50002868816921F00C01816128688169A26873
:102F600011430FE0D4E90012E368286801F0B2FAD7
:102F70002868816921F44061816128688169A268BB
:102F800041EA02218161D5E72868D4E9002C277B3A
:102F9000036A016A21F480710162C16923F400733C
:102FA00021F0030141EA0C0121F0F00C39074FF444
:102FB00000774CEA116107EA02221A43C1610262FA
:102FC0002868C16921F00C01C1612868C169A26843
:102FD00011432BE02868D4E90021E768036AD0F8A0
:102FE00020C02CF4805CC0F820C0D0F81CC023F4B2
:102FF00000532CF4407C4CEA012121F4704C4FF634
:10300000FF7101EA07314FF4005741EA0C0107EA6A
:1030100002321A43C16102622868C16921F4406129
:10302000C1612868C169A26841EA0221C16181E7E2
:1030300010B5040003D094F83D0010B107E0012062
:1030400010BD002084F83C00204600F01EF802204D
:1030500084F83D00211D206801F0B2F8012084F8B9
:10306000460084F83E0084F83F0084F8400084F86D
:10307000410084F8420084F8430084F8440084F856
:10308000450084F83D00002010BD704730B504466F
:10309000002551B104290DD0082910D094F8412001
:1030A00094F84500012A11D10EE094F83E2094F8DE
:1030B0004200F7E794F83F2094F84300F2E794F8D1
:1030C000402094F84400EDE7012801D0012030BDF4
:1030D000022059B1042912D0082919D084F84100DE
:1030E00084F845000C293ED001253AE084F83E00E2
:1030F00084F842002068C26842F0020210E084F8BE
:103100003F0084F843002068C26842F0040207E0F0
:1031100084F8400084F844002068C26842F0080245
:10312000C2600122206801F099F8114920688842A4
:103130000ED0104988420BD0B0F1804F08D00E4914
:10314000884205D00D49884202D00D49884204D1F9
:10315000816801F00701062903D0016841F00101EF
:103160000160284630BD2068C26842F01002D7E7EF
:10317000002C0140003401400004004000080040E1
:10318000000C00402DE9F04104460068C66805695E
:103190004FF00007A90713D5B10711D5F91E01613A
:1031A00001202077206880698007204602D0FFF741
:1031B00053FE04E000F0D8F8204600F087F92777A6
:1031C000680716D5700714D521686FF004000861F0
:1031D000022020772068806910F4407F204602D0CA
:1031E000FFF73AFE04E000F0BFF8204600F06EF969
:1031F0002777280715D5300713D521686FF0080009
:103200000861042020772068C0698007204602D02A
:10321000FFF722FE04E000F0A7F8204600F056F980
:103220002777E80616D5F00614D521686FF0100050
:103230000861082020772068C06910F4407F20468C
:1032400002D0FFF709FE04E000F08EF8204600F0FF
:103250003DF92777E80708D0F00706D021686FF01E
:1032600001000861204600F08DF9280608D53006D7
:1032700006D521686FF0800008612046FFF780FCCA
:10328000680608D5700606D521686FF04000086111
:10329000204600F076FAA8060AD5B00608D52168BF
:1032A0006FF0200008612046BDE8F041FFF769BCDF
:1032B000BDE8F08130B585B0002100910191029107
:1032C0000391006823490224234DB0F1804F14D0AC
:1032D000224A90420FD1886940F0040088618869D1
:1032E000694600F0040004908020CDE900042846DF
:1032F0000394FFF721F805B030BD886940F008005D
:103300008861886900F008000490886940F0040032
:1033100088618869694600F0040004904FF4816078
:10332000CDE900040E480394FFF706F84FF400407F
:10333000CDE90004694628460394FEF7FDFF0948DD
:10334000416821F4407141F0E06141F44071416015
:10335000D1E70000001002400008014000040040D6
:10336000000C014000000140704770B5044690F821
:103370003C0000260D4601280FD0012084F83C00B7
:103380006AB1042A1DD0082A2FD00C2A3FD001266A
:10339000002084F83C00304670BD022070BD2068DB
:1033A00000F07CFF2068816941F00801816120689C
:1033B000816921F004018161206881692A691143D2
:1033C00011E0206800F09AFF2068816941F40061F3
:1033D00081612068816921F480618161206881694F
:1033E0002A6941EA02218161D2E7206800F0BCFF2E
:1033F0002068C16941F00801C1612068C16921F0FC
:103400000401C1612068C1692A69114311E0206883
:1034100000F0DEFF2068C16941F40061C1612068ED
:10342000C16921F48061C1612068C1692A6941EAEA
:103430000221C161ACE710B5040003D094F83D004F
:1034400010B107E0012010BD002084F83C002046A8
:1034500000F01EF8022084F83D00211D206800F0D5
:10346000AFFE012084F8460084F83E0084F83F0057
:1034700084F8400084F8410084F8420084F8430056
:1034800084F8440084F8450084F83D00002010BD15
:1034900008B501680B48B1F1804F0BD00A4A914240
:1034A00007D1C16941F00201C161C06900F00200A9
:1034B000009008BDC16941F00101C161C06900F01F
:1034C0000100F5E7001002400004004070470000D2
:1034D00010B50446022249B104290ED0082913D0A0
:1034E00094F84100012816D0012010BD94F83E0048
:1034F0000128F9D184F83E200FE094F83F0001281C
:10350000F2D184F83F2008E094F840000128EBD184
:1035100084F8402001E084F841200122206800F076
:103520009DFE13492068134A884201D0904203D17E
:10353000436C43F400434364206888420DD09042BA
:103540000BD0B0F1804F08D00B49884205D00B4911
:10355000884202D00A49884204D1816801F00701FB
:10356000062903D0016841F001010160002010BD6F
:10357000002C0140003401400004004000080040DD
:10358000000C00402DE9F05F0024DFF89C91DFF88B
:103590009C81DFF89CA10646A346316849457DD150
:1035A00008EBC4156F8A6F60A5F812B0384602F0B8
:1035B00053FB02F0B7FA5F4A5F4B02F02FF801F0BD
:1035C000E7FCA86207EBC70000EB071001F0BFFFA4
:1035D0005A4A5B4B02F022F800225A4B01F0C6FD1A
:1035E00001F0D6FC02466862286D20F000412046BA
:1035F00000F0C2FCA865286D10F1FF4F26D334B14E
:10360000012C0DD0022C12D0032C70D117E04E4D9E
:1036100000224FF480612846FEF78FFF012224E04C
:10362000002210214848FEF788FF01222CE0464D79
:10363000012211462846FEF780FF002239E00122D0
:1036400051024248FEF779FF002245E034B1012CD7
:1036500014D0022C26D0032C49D136E03A4D012259
:1036600091022846FEF769FF00224FF48051284658
:10367000FEF763FF3648D8F8581023E001221021E6
:103680003148FEF75AFF00224FF400612F48FEF741
:1036900054FF2648D0F8D8102D4800E027E00068F5
:1036A000C16324E0284D002201212846FEF745FF92
:1036B000012202212846FEF740FF1C48D0F858118D
:1036C000A0F590700068816311E000224FF4007152
:1036D0001E48FEF732FF01224FF400611D48FEF73D
:1036E0002CFF1248D0F8D81119480068416331689E
:1036F000514513D108EBC410817D491CCAB28275B3
:10370000017E11B1012905D008E0C0F858B080F859
:1037100015B003E0052A01D180F816B0641C042C12
:10372000FFF63BAFBDE8F09F00080040EC01002031
:10373000000C004067E527C459F9F93F6F1283C0B8
:10374000CA21094000E07C4000100140000C01400B
:1037500084000020000801400246002041B10429F5
:1037600009D008290AD00C2901D11068006C7047D3
:103770001068406B70471068806B70471068C06BB2
:103780007047704770477047F8B50168044608688D
:10379000CA684B6910F00F0F4FF0000559D003F0C5
:1037A000010602F49077374365D0C10705D0D105F3
:1037B00003D5616C41F001016164410705D5D9076A
:1037C00003D0616C41F002016164810705D5D9071E
:1037D00003D0616C41F004016164010707D502F078
:1037E0002001314303D0616C41F008016164616CD8
:1037F00000293AD0800604D5900602D5204600F074
:10380000B3FE20684069616CC0F38010090700D4E2
:1038100060B3204600F081FE20684069400621D553
:103820002068143050E8001F21F0400140E80012E9
:10383000002AF5D1E06BA8B16D494163E06BFEF75A
:10384000C3FC002811D0E06B416B01B0BDE8F04033
:10385000084783060FD593060DD52046BDE8F840EE
:1038600000F082BE2046FFF78EFFF8BD2046FFF72E
:103870008AFF6564F8BD266B2023012E7CD1C60625
:103880007AD5D60678D508684868009048694FF020
:103890000206400640D5E16B086840680004000C51
:1038A000E8D0A28D8242E5D9E085886920282DD014
:1038B00020680C3050E8001F21F4807140E80012AD
:1038C000002AF5D12068143050E8001F21F00101D2
:1038D00040E80012002AF5D12068143050E8001F9B
:1038E00021F0400140E80012002AF5D184F842306E
:1038F000256320680C3050E8001F21F0100140E8DB
:103900000012002AF5D1E06BFEF73AFC6663A08D49
:10391000E18D401A81B22AE0A08DE18D401A81B27A
:10392000E08D0028A6D00029A4D022680C3252E8ED
:10393000000F20F4907042E80007002FF5D12068B6
:10394000143050E8002F22F0010240E80027002F39
:10395000F5D184F84230256320680C3050E8002F00
:1039600022F0100240E80023002BF5D166632046C8
:10397000FFF708FFF8BDFFE705062BD5150629D58B
:1039800094F841002128F5D1A068B0F5805F01D1FD
:103990002069B0B1206A411C21622168007848602A
:1039A000E08C401E0004000CE084E3D12068C16874
:1039B00021F08001C1602068C16841F04001C16010
:1039C000D8E7206A0088C0F308004860206A801C9D
:1039D0002062E5E74006CDD55006CBD5CA68204623
:1039E00022F04002CA6084F8413000F0EBF8C1E7F1
:1039F0000B45000870B5040004D094F84100002580
:103A000010B106E0012070BD84F84050204600F05F
:103A100023F8242084F841002068C16821F4005173
:103A2000C160204600F002FE2068016921F4904147
:103A300001612068416921F02A0141612068C16863
:103A400041F40051C1606564202084F8410084F88D
:103A500042006563002070BD30B585B0002400943D
:103A60000194029403940068184988422CD11848A4
:103A7000816941F480418161816901F4804104914F
:103A8000816941F0040181618069124D00F00400F8
:103A900004904FF4007000900220019003200390E6
:103AA00069462846FEF748FC2815CDE9000469461A
:103AB00028460294FEF740FC002211462520FEF71E
:103AC000ADFD2520FEF79CFD05B030BD003801405E
:103AD000001002400008014090F84230202B01D035
:103AE0000220704721B11AB10023036300F0FABD30
:103AF000012070470068084988420CD1074801211D
:103B00000170C1600169491C016105491822A1F5D4
:103B10001270FFF7E1BF704700380140000000203D
:103B2000EC0300202DE9F843044690F84100984644
:103B300016460D46202802D00220BDE8F88385B144
:103B40007EB100206064212084F84100FEF7FAFC79
:103B5000A6848146E684A0682027B0F5805F02D065
:103B600003E00120E9E7206910B12E4600250EE0B0
:103B700000260CE08021204600F0CFFDA8B9C6B198
:103B800016F8010B21684860E08C401EE084E08C50
:103B90004B464FF00002CDF800800028EAD14FF0EC
:103BA0004001204600F0B9FD40B184F84170032087
:103BB000C3E735F8020BC0F30800E3E784F841706F
:103BC0000020BAE77047FEE72DE9F04F85B00026E8
:103BD0004A480096019602960396816941F02001B9
:103BE0008161816901F020010491816941F0100136
:103BF0008161816901F010010491816941F0040142
:103C00008161816901F004010491816941F0080139
:103C100081618069DFF8E8A000F0080004900022CC
:103C200041F213615046FEF788FCDFF8D8B04FF43C
:103C30002068002241465846FEF77FFC4FF4006999
:103C4000002249463048FEF778FC022541F2134035
:103C5000012403958DE8510069465046FEF76CFB40
:103C60002A4F0C20CDE90007694602945046FEF722
:103C700063FBF320CDE90007694602945846FEF73E
:103C80005BFBCDF800800395CDE9014669465846B7
:103C9000FEF752FB60028DE83100694650460395FD
:103CA000FEF74AFBCDF800900395CDE90146694641
:103CB0001548FEF741FB002211460620FEF7AEFC38
:103CC0000620FEF79DFC002211460720FEF7A6FC09
:103CD0000720FEF795FC002211460A20FEF79EFC05
:103CE0000A20FEF78DFC002211461720FEF796FCF5
:103CF0001720FEF785FC05B0BDE8F08F00100240EC
:103D000000100140000C014000080140000031108B
:103D100010B58AB0002423480494059406940794AF
:103D2000089409940094019402941D49039401603D
:103D30002F21C0E901144FF6FE71C0E9031444615C
:103D40008461FEF75DFF08B172B6FEE74FF4805064
:103D5000049004A91348FFF711F808B172B6FEE702
:103D60001048FFF765F908B172B6FEE7089408A994
:103D70000C480994FEF706FF08B172B6FEE7012071
:103D8000CDE9004002940022694606480394FFF7FB
:103D9000BDF8002801D072B6FEE70AB010BD0000E1
:103DA000002C01403C00002010B58AB0002407948C
:103DB0001C2168460894FCF732FB1D484FF08041F7
:103DC00001600B21C0E901146421C0E9031484617E
:103DD000FFF731FB08B172B6FEE7079407A9144854
:103DE0000894FEF7CFFE08B172B6FEE76020CDE979
:103DF00000040294002269460D480494FFF7B5FAC6
:103E000008B172B6FEE7042269460948FFF7ADFA29
:103E100008B172B6FEE7082269460548FFF7A5FA21
:103E200008B172B6FEE70248FFF744FA0AB010BDC7
:103E30008400002010B58AB0002407941C21684635
:103E40000894FCF7ECFA1648144901600B21C0E90C
:103E500001146421C0E903148461FFF7ECFA08B18E
:103E600072B6FEE7079407A90D480894FEF78AFE8C
:103E700008B172B6FEE76020CDE900040294042286
:103E8000694607480494FFF770FA08B172B6FEE776
:103E90000348FFF70FFA0AB010BD0000000400400D
:103EA000CC00002010B586B000241748009401947F
:103EB00002940394049413490594016045F6BF519C
:103EC000C0E901140421C0E903148461FEF798FEDF
:103ED00008B172B6FEE74FF48050009069460A4878
:103EE000FEF74CFF08B172B6FEE7049404A9064839
:103EF0000594FEF747FE002801D072B6FEE706B033
:103F000010BD0000000800401401002010B586B06C
:103F100000241748009401940294039404941349D4
:103F20000594016045F6BF51C0E901140421C0E9C0
:103F300003148461FEF764FE08B172B6FEE74FF425
:103F40008050009069460A48FEF718FF08B172B623
:103F5000FEE7049404A906480594FEF713FE002822
:103F600001D072B6FEE706B010BD0000000C0040A4
:103F70005C010020FEE7FEE72DE9F05F0B463849C3
:103F800001EBC014A06CDFF8DCB010F0FF4F01D1E2
:103F9000002060651146184601F0A8FF05466066DE
:103FA000606C294601F0A4FEA0668146A16F606D99
:103FB00001F09EFE01F0B6FD2B4FDFF8B0A03A46AF
:103FC000534601F02BFB0646A06C8846294601F0BB
:103FD0008FFE01F0A7FD3A46534601F01FFB07464E
:103FE0000D46206E01F09EFD3A462B4601F002F888
:103FF0003246434600F0FEFF00F0CAFF206701464C
:104000002066484601F0BAFDE067064660675D46F7
:10401000BBF9020001F020FE314601F035FE02D26C
:10402000B5F9020009E0B5F9040001F015FEE16FF1
:1040300001F02AFF04D2B5F9040001F00DFE60671B
:10404000656FE16F284601F051FFA067284601F037
:1040500069FD00F027FFBDE8F05F01F01BBA00002A
:10406000EC010020000000207B14AE47E17A843F81
:1040700070470000012804D0022804D0032804D08F
:1040800004E0054A02E0054A00E0054A1068012202
:104090008A401040C840704708080140080C0140A1
:1040A00008100140704700002DE9F047174CA2B0FE
:1040B000D4F8A40101F036FD80468946D4F82401E5
:1040C00001F030FD06460F46D4F8A40001F02AFDA9
:1040D00082460D46606A01F025FD8DE8030403ABBE
:1040E0000BA283E8E003642108A8FCF7A1F808A864
:1040F000FCF76AF982B24FF0FF3308A9A4F1480037
:10410000FFF710FD22B0BDE8F0870000EC010020B1
:1041100046523A252E32662C464C3A252E32662CD3
:1041200042523A252E32662C424C3A252E32660AED
:1041300000000000FEF70CBA30B58FB028216846A9
:10414000FCF76DF914210AA8FCF769F901210804AC
:10415000CDE900100024029402250491CDE9075016
:10416000000109906846FEF767FB08B172B6FEE7EA
:104170000F20CDE90A054FF4A060CDE90C404FF4C3
:1041800080600E9001210AA8FEF77AFA002801D07B
:1041900072B6FEE70FB030BD704700000148FEF771
:1041A000F1BF00003C0000200148FEF7EBBF00001B
:1041B000140100200148FEF7E5BF00005C0100206B
:1041C000F0B50268204C214D214E224F224B4FF07A
:1041D000804CA04209D0984207D0604505D0A84243
:1041E00003D0B04201D0B84204D122F0700E4A6828
:1041F00042EA0E02A04209D0984207D0604505D09D
:10420000A84203D0B04201D0B84203D122F4407595
:10421000CA682A434D6922F080022A4302608A68F4
:10422000C2620A688262A04201D0984201D1096943
:104230000163012141610169C90703D0016921F0CE
:1042400001010161F0BD0000002C014000040040AC
:1042500000080040000C00400034014010B501F09F
:104260001F030121046A99408C430462016A9A4049
:104270001143016210BD10B5846842EA032224F4A0
:104280007F440A432243826010BD826822F070029C
:104290000A4342F00701816070470000F0B5036AED
:1042A000026A22F00102026242688469124E24F01E
:1042B00073050C682C4323F002058B682B430D4DCE
:1042C000A84201D0B04205D123F00807CB683B4398
:1042D00023F00403A84201D0B04205D14D6922F475
:1042E000407215438A692A43426084614968416388
:1042F0000362F0BD002C014000340140F0B5026AB9
:10430000036A23F010030362436884690D6824F490
:10431000E64444EA05248D6822F0200242EA0512B0
:104320000F4D104EA84201D0B04206D1CF6822F006
:10433000800242EA071222F04002A84201D0B042B5
:1043400007D14D6923F4406343EA85038D6943EA4D
:10435000850343608461496881630262F0BD0000A7
:10436000002C014000340140F0B5026A036A23F4D6
:10437000807303624368C46922F4007224F07305F9
:104380000C68124E2C438D6842EA05220E4DA8425D
:1043900001D0B04206D1CF6822F4006242EA07227F
:1043A00022F48062A84201D0B04207D14D6923F4C3
:1043B000405343EA05138D6943EA05134360C46122
:1043C0004968C1630262F0BD002C01400034014025
:1043D00030B5046A026A22F4805202624268C369FC
:1043E0000D6823F4E64343EA05238D6824F4005462
:1043F00044EA0534084DA84202D0084DA84204D131
:104400004D6922F4804242EA85124260C3614968E4
:104410000164046230BD0000002C01400034014002
:1044200010B5036A046A24F001040462846924F06C
:10443000F00444EA021423F00A020A43846102628F
:1044400010BD000070B5056A046A24F0010404621E
:104450008469124EB0420ED0114EB0420BD0B0F172
:10446000804F08D00F4EB04205D00F4EB04202D060
:104470000E4EB04203D124F00304144301E044F093
:1044800001041A0724F0F00444EA126225F00A033A
:1044900001F00A0119438261016270BD002C0140E4
:1044A000003401400004004000080040000C0040BF
:1044B00010B5036A046A24F010040462846923F0CE
:1044C000A00324F4704444EA023243EA01118261F9
:1044D000016210BD30B5046A056A25F01005056259
:1044E000856925F4407545EA022222F470454FF6AD
:1044F000FF7202EA033224F0A0032A43A02404EA54
:10450000011119438261016230BD10B5406A00217A
:10451000C185C184FFF737F910BD01680C3151E83E
:10452000002F22F4907241E80023002BF5D101689E
:10453000143151E8002F22F0010241E80023002B42
:10454000F5D1016B012909D101680C3151E8002F27
:1045500022F0100241E80023002BF5D1202180F841
:10456000421000210163704708B590F842102229DB
:1045700001D0022008BD82684FF480539A4201D1D5
:10458000016921B1816A9A421BD04AB10AE00268EE
:10459000816A5268C2F308020A80816A891C08E0B5
:1045A000026972B10268526802F07F020A70816A81
:1045B000491C8162C18D491E0904090CC18503D0C3
:1045C0001BE002685268F1E70168CA6822F0200225
:1045D000CA600168CA6822F48072CA6001684A69C8
:1045E00022F001024A61202180F84210002141633B
:1045F000026B012A03D0FFF77DFA002008BD01639A
:1046000001680C3151E8002F22F0100241E800232C
:10461000002BF5D101680A68D20602D50A684968FC
:104620000091818DFFF7AEF8E7E7000070B5044612
:1046300000680169E26821F4405111430161216978
:10464000A0680843616908432168CA6841F20C63A5
:104650009A430243CA6020684169A26921F440710B
:10466000114341611E492068884202D1FEF7AEF82D
:1046700001E0FEF79BF800EBC00101EB001260685F
:1046800064218000B2FBF0F3B3FBF1F36FF0180686
:104690007343B2FBF0F5B2FBF0F605EB8305322372
:1046A00003EB0515B5FBF1F5B6FBF1F605F0F005EA
:1046B00005EB0615B2FBF0F6B2FBF0F0B0FBF1F043
:1046C0006FF01802504306EB800003EB0010B0FBC4
:1046D000F1F0216800F00F002844886070BD0000F0
:1046E0000038014081628285C28500214164222117
:1046F00080F84210016921B10168CA6842F48072F1
:10470000CA6001684A6942F001024A610068C168F2
:1047100041F02001C160002070472DE9F843984620
:1047200017460D460446089E24E0701C22D0FDF773
:1047300009FFA0EB0800B0421AD8CEB12068C168CA
:10474000490717D5802D15D0402D13D00168C943D6
:1047500009070FD401680025406800902046FFF744
:10476000DCFE0820606484F840500120BDE8F88336
:104770000320FBE72068006835EA000004D0002031
:10478000B842D2D00020F1E70120F9E70148FEF756
:10479000FBBF0000A4010020FEE7490050EAC12051
:1047A00018BF04204A0D18BF40F0010040F2FF720C
:1047B000B2EB515F08BF40F00200012808BF05209E
:1047C0007047002809DB00F01F02012191404009D9
:1047D000800000F1E020C0F8001170470907090EC1
:1047E000002804DB00F1E02080F80014704700F09E
:1047F0000F0000F1E02080F8141D704740F20132F4
:1048000000204FF0E04101F01DBC0000024A0020F2
:10481000110701F017BC000001FDFFFF10B50446B1
:10482000D1E9000100F002F8206010BDF8B504469F
:104830000D466A4600F0D0F800987E3000900028BF
:104840001EDC002213462046294600F0E7FD17D063
:10485000002140F608004FF0000006462046294699
:1048600000F096FB044640F6080006EA00014FF00F
:10487000000034F0004004BF0220FBF7FFFD29E0F8
:104880000098FF2828DB002108464FF0000000F4C4
:104890004006002213462046294600F0BDFF8CBF8B
:1048A000002501250220FBF7E9FD4FF0FF4446B14A
:1048B000002D0CBF4FF400004FF48000B04218BF31
:1048C000084C042108464FF00000002D04BF84F07E
:1048D0000040F8BD2046F8BD20462946BDE8F84016
:1048E00000F056BBFFFF7F7F10B504460A46D4E9AF
:1048F0000003194600F040F9C4E9000110BD30384A
:104900000A2801D2012070470020704730B583B0DB
:104910000446FBF7AEFD05460020CDE90000024647
:1049200021466846FCF704F82846FBF7A7FDDDE9B9
:10493000000103B030BD000010B500210548FEF7AE
:10494000C7FD0548FEF7E4F9BDE810400348FEF74F
:10495000DFB9000084000020140100205C01002069
:1049600010B504210548FEF7B3FD0548FEF7D0F960
:10497000BDE810400348FEF7CBB90000CC00002092
:10498000140100205C010020114810B5816841F439
:10499000085181600F48016841F00C010160001D61
:1049A000016841F00C0101600A480C30016841F0D7
:1049B0000C010160001F016841F00C01016008203A
:1049C000FFF7FFFEBDE810400920FFF7FABE000028
:1049D000000001400004014010B51446002222608E
:1049E000114A21F000439342A8BF10BD53EA0002D0
:1049F00008BF10BDB3F5801FA8BF226807DA3622B2
:104A000001F020FB6FF0350221F000432260DFF857
:104A10001CC06FF31E510CEB23531A4441F0FF519D
:104A200041F00051226010BD0000F07F02FCFFFF4A
:104A300010B508210548FEF74BFD0548FEF768F95B
:104A4000BDE810400348FEF763B900008400002071
:104A5000140100205C01002010B504210548FEF778
:104A600037FD0548FEF754F9BDE810400348FEF74E
:104A70004FB9000084000020140100205C010020D8
:104A80001E4B10B51C68CC4065F35F041968E4B296
:104A9000D14064F35F0111F00302194901EBC01129
:104AA000B1F90C0006D0012A1CD0022A1ED0032A1C
:104AB00007D11FE00B7D012B01D1401C00E0401EFF
:104AC00088810A75488A0022401C4882B1F90C008E
:104AD0000123B0F5E75F02DA10F5E75F01DCCB7583
:104AE0008A8110BD0B7D032BE9D1E6E70B7D002BFE
:104AF000E5D1E2E70B7D022BE1D1DEE7080C0140B6
:104B0000EC01002070B50026072902D9083989B2C6
:104B10000126154C012804D0022808D003280CD007
:104B200012E0A06940F00400A06110480AE0A0690A
:104B300040F00800A0610E4804E0A06940F01000B9
:104B4000A0610C4800EB86052C6888000F26864083
:104B5000B4432C608240022000EB8100834028682F
:104B60001A4302432A6070BD001002400008014051
:104B7000000C0140001001402DE9F04106460C46B2
:104B800040F2FF75174635EA14502BD00022134629
:104B9000304600F043FC25D03A463046214601F02D
:104BA00051FA06460C4635EA145010D0002213463E
:104BB000304600F033FC15D10220FBF75FFCFFF715
:104BC00025FE0A46214662F31E01BDE8F08102205F
:104BD000FBF754FCFFF712FE0A46214662F31E0162
:104BE000BDE8F08130462146BDE8F08175490820D6
:104BF00088610C210220FDF7B7F90D210220FDF795
:104C0000B3F90E210220FDF7AFF90F210220FDF7C5
:104C1000ABF96D48016841F480510160016841F4CD
:104C200000510160016841F480410160016841F474
:104C300000410160FDF794FCFFF77EFAFEF7C4FF28
:104C4000FFF7B2F8FFF7F6F8FFF72CF9FFF75EF978
:104C50005F485E49002501604FF41651C0E9011517
:104C60000C21C560C0E904518561C561FEF7C2FE33
:104C700008B172B6FEE7FFF74BF800215548FEF782
:104C800005FAFFF781FE182253495148FEF724FF29
:104C9000FFF7E2FEFFF7CCFEFFF762FEFFF74CFEE8
:104CA0004B4C4E48483460644D48A0644D486065A4
:104CB0004D48C4F8C4004D48C4F8C8004C48C4F876
:104CC000D4004C48C4F844014B49C4F848114B493E
:104CD000C4F85411C4F8C4014948C4F8C80149488B
:104CE000C4F8D401DFF82091DFF820A1484F4FF439
:104CF000FA6B04F50776387888B33D700C210220F2
:104D0000FFF7B8F930600D210220FFF7B3F97060AA
:104D10000E210220FFF7AEF9B0600F210220FFF74D
:104D2000A9F9F060D6E9001CB36801EB0C0203EBB3
:104D30000008424504DA4846C4F85090514604E061
:104D40000EDD5046C4F850A04946C4F8D010C4F84F
:104D50005011C4F8D0015846FDF7CEFA1EE022E00B
:104D600021B9BCF1000F01D103B918B3284A1A497F
:104D700008322C31184800F04DF817482C304168A3
:104D800021650168C4F8D010C168C4F8501180686A
:104D9000C4F8D00119211048FBF741FB18220E4935
:104DA0000B48FEF799FEF8680028A4D0FD60FFF7D5
:104DB0007BF9A0E72565C4F8D050C4F85051C4F879
:104DC000D051EBE700100240100C014000380140C8
:104DD000A40100203C000020EC0300205474114189
:104DE0001BCDDC42D34D4241A24527418F240043D5
:104DF000151D444100002041567DE0422497334177
:104E000064DD654226E4B740000040C00000404039
:104E10000000002070B50E469EB00146154668465B
:104E2000FBF7AEFA142119A8FBF7F9FA0020286065
:104E30001BA168460AE020782D281CD02B281AD008
:104E4000214619A8FBF7DFFA15A10020FBF792FA1B
:104E50000400F0D119A8FBF7B7FA002809D019A867
:104E6000FFF754FD00F094F829688A00491C296076
:104E7000B0501EB070BD19A8FBF7A6FA50B119A822
:104E8000FFF744FD00F084F8014628688200401CCA
:104E90002860B150214619A8FBF772FAD4E7000048
:104EA0002C0000002DE9F04D07460E4600F0EAFC0C
:104EB00004460D463A46334600F03EFDDFF86CA04E
:104EC000DFF86CB01B4B0746884616F0004F4FF0DA
:104ED00000020AD000F066FB0AD900225B46384681
:104EE000414600F099FC1BD212E000F05BFB08D2B7
:104EF000002253462046294600F02AFD04460D466E
:104F00000EE000225B463846414600F085FC07D89B
:104F1000002253462046294600F06CF804460D4610
:104F20003146204665F31E01BDE8F08D0000F03FDC
:104F30000000E03F0000E0BF10B500290AD008786B
:104F4000002807D005487844FCF746F9002801D02E
:104F5000002010BD0248784410BD000086120000F9
:104F60007E12000010B500290AD00878002807D06A
:104F700005487844FCF730F9002801D0002010BD26
:104F80000248784410BD0000761200006E12000046
:104F900021F00042A2F16052B2F5801F01F00043FF
:104FA00028BFD2F17F6C0BD95FEA001C43EAC20232
:104FB00042EB507018BF704728BF20F001007047C7
:104FC000B2F5801FBCBF184670474FEA410C1CF574
:104FD000001F02D2084600F052BF70B500F0C8FBB7
:104FE00000000089FFF7F6BF4FF00040A0F58000F9
:104FF0007047000010B591EA030F48BF83F00043EB
:1050000000F1AE84841A71EB030C05D2121943EB44
:105010000C03001B61EB0C01DFF824E14FEA115493
:10502000A4EB135C1EEA430F18BF9EEA445F73D0E3
:1050300023EA0E03DCF1200E21EA045143F480132D
:1050400032D322FA0CFE10EB0E0023FA0CFE41EBD9
:105050000E01CCF1200E03FA0EFE10EB0E0051F102
:105060000001B1F5801FCCF1200E32D201EB0451CA
:1050700012FA0EF2BDE8104058BF7047401C38BF0E
:105080005FEA420218BF7047002814BF20F00100F9
:1050900041F100014FEA410313F5001F38BF70478B
:1050A000A1F1C04100F0B2BB012A43EB0302ACF115
:1050B000200CDCF11F0E32BF4FF0000E23FA0CF370
:1050C00010EB030041EB0451B4EB115FD0D0A1EB26
:1050D000045101F5801149085FEA300001EB0451E9
:1050E0000ED350F1000038BF12FA0EFE08D1BDE811
:1050F0001040C9E7401C38BF5FEA4202CAD1C3E78B
:10510000BDE810404FEA410313F5001F38BF704758
:10511000A1F1C04100F07ABB9EEA445F08D011EAD9
:105120005E0FBDE8104004BF01F000410020704751
:10513000BDE8104070B500F01BFB00BF64FBBE3E35
:105140000000E0FF02494FF0000000F049BF00BF3F
:105150000000F87F491058BFC1F140415B1058BFB3
:10516000C3F140438B42EFF3008070472DE9C0410B
:1051700030B4DFF8A0C23CEA111418BF3CEA1314A3
:1051800000F0EC8081EA03051CEA111444EAD574AE
:1051900018BF1CEA131500F0C780A4EB05044FF0FC
:1051A000004545EAC12145EAC32341EA505143EA9B
:1051B000525304F17F74994204F500344FEAC02041
:1051C0004FEAC22208BF904200F09C804FEA13656C
:1051D0000FF24016765D4FEA134506FB05F7C7F15F
:1051E000807706FB07F74FEAD737A7FB03687642BD
:1051F000C8F58038A7FB06CE38BFA8F1010807FB29
:1052000008E64FF0000EA6FB028CE6FB03CEDCF1B5
:10521000000CCEF1004E38BFAEF1010EA6FB0C58CB
:105220004FF000074FF00005E6FB0E87A1FB08C614
:10523000A0FB07CE16EB0E0645F10005E1FB076566
:1052400015F1E04E7EBFA4F580345FEA46066D415D
:1052500016F1800745F100054FEA17274FEA066669
:1052600047EA0567A6F1DE46B6F1805F4FEA1525ED
:105270001FD9384624F0010C05EBC471BCF1FE6F58
:1052800001EB0C1102D8F0BCBDE8008124425CBFE8
:1052900001F5801E9EEAC47F02D4F0BCBDE8008107
:1052A000244238D4F0BCA1F1C041BDE8004100F077
:1052B000ADBA4FEAD22242EA43524FEAD323A7FBC8
:1052C00002864FEAD02040EA415007FB03661EEAFF
:1052D0000E0F4FEAD12105FB026658BFA6EB005620
:1052E000B6EB00564FEA520E4EEAC37E18EB0E0E96
:1052F00056EB530EBDD518EB02085E417F1C55F1ED
:105300000005B6E74FF480154FF000074FF0000698
:105310004FF00008ADE7F0BC4FF0000001F1C041D4
:1053200001F00041BDE8008111EA0C1F0CEA1315E1
:1053300000D00CE013EA0C1F00F025804FF00000B5
:10534000F0BC81EA030101F00041BDE80081F0BC3E
:10535000BDE8004181EA030100F058BAF0BCBDE8A5
:10536000004170B500F004FA097EFC3E00F007B879
:1053700081EA03014FF0000001F00041704781EA2B
:10538000030100F043BAF0BCBDE800414FF000005B
:1053900021497047FFFDFBF9F7F5F4F2F0EEEDEB74
:1053A000E9E8E6E4E3E1E0DEDDDBDAD8D7D5D4D323
:1053B000D1D0CFCDCCCBCAC8C7C6C5C4C2C1C0BF6F
:1053C000BEBDBCBBBAB9B8B7B6B5B4B3B2B1B0AF75
:1053D000AEADACABAAA9A8A8A7A6A5A4A3A3A2A159
:1053E000A09F9F9E9D9C9C9B9A9999989797969514
:1053F00095949393929191908F8F8E8E8D8C8C8BB0
:105400008B8A898988888787868585848483838237
:10541000828181800000FF070000F87F51EA030CC1
:1054200017D41CF5801F58BFBCF5801F00F1068003
:10543000994218BF704708BF9042704707D711F5CF
:10544000801F58BF13F5801F19D4994270478942B5
:1054500070471CF5801F08D5BCF5801FF7D58B421F
:1054600018BF704708BF824270474FF4001C1CEB06
:10547000410F38BF1CEB430F01D28B42704770B510
:1054800000F076F9922449004FF000514FF080531C
:10549000FFF760BE4FEA41034FEA5353A3F5806321
:1054A000D3F11E03C8BFD3F1210C0CDD4FF0004235
:1054B00042EAC12242EA505232FA03FC8CEAE17C11
:1054C000ACEBE1707047102BC4BF0020704703F5B0
:1054D000787CBCF1FF3F04D06FF0004282EA2100EB
:1054E000704770B500F044F949922480002070475D
:1054F000F2E700004FEA1153A3F58063D3F11E03D6
:10550000A8BFD3F1200C08DB4FF0004242EAC122D1
:1055100052EA505232FA03F0704709420BD4102B72
:10552000C4BF0020704703F5787CBCF1FF3F05D075
:105530004FF0FF3070474FF00000704770B500F03B
:1055400017F900BF4992248000207047F0E710F05F
:10555000004248BF4042B0FA80F310FA03F10AD08B
:10556000C3F11D0303F580634FEA415002EB035280
:1055700002EBD12170474FF000007047B0FA80F382
:1055800010FA03F10AD0C3F11D0303F580634FEA5B
:1055900041504FEA035202EBD12170474FF0000017
:1055A0007047000051EA030C17D41CF5801F58BF48
:1055B000BCF5801F00F10680994218BF704708BFF4
:1055C0009042704707D711F5801F58BF13F5801F11
:1055D00019D499427047894270471CF5801F08D53D
:1055E000BCF5801FF7D58B4218BF704708BF8242B9
:1055F00070474FF4001C1CEB410F38BF1CEB430FEE
:1056000001D28B42704770B500F0B2F89224490085
:105610004FF000514FF08053FFF79CBDDFF848C1B9
:1056200070B51CEA111E1EBF1CEA13159EEA0C0F72
:1056300095EA0C0F00F06F8081EA030423EA4C1313
:105640004EEAD47E21EA4C1141F4801143F48013D8
:10565000AE44A1FB024CA0FB0365AEF17F7E361980
:1056600055EB0C05A1FB034C4CF10003A0FB021C05
:1056700016EB0C06654153F10003094218BF46F0D2
:10568000010613F4007F0BD14FEA03314FEA0530D6
:10569000340341EA155140EA16506FF003020AE064
:1056A0004FEAC3214FEAC520F40241EA555140EACE
:1056B00056506FF0020202EB2E4201EB025585EAD2
:1056C000CE710AD05FEA440C18BF24F0004450F1B8
:1056D000000041F1000120EAD47040F2FE7C6245F6
:1056E00000D270BDA84214BF4FF080444FF0404438
:1056F000002E08BF0024BEF1806FA8BFA1F1C041F9
:10570000BDE8704080F282804FF0000001F1C0419E
:1057100001F0004170479EEA0C0F0CEA131518BF08
:1057200095EA0C0F06D04FF0000081EA030E0EF050
:10573000004170BD00F01CF88900013E00F007B880
:1057400000F009B84FEA430C5FEA5C5C08D081EADC
:10575000030100F05BB84FEA410C5FEA5C5CF6D1F4
:105760004FF00000014970470000FF070000F87F7C
:105770000EF1020E2EF0030E5EF8046B364205D4D5
:10578000012A43EB030515F5001F12D8012841EB50
:10579000010C1CF5001F0CD80ED14FEAD17C15F579
:1057A000001F0CEB4C0C0CF1020C08BF4CEBD37C33
:1057B00004E04FF0080C01E04FEAD37C0CEB4C0501
:1057C00026FA05F606F00706B6F1040C06D20EEB33
:1057D000860CBDE870404CF0010C6047DFE80CF02F
:1057E000090B02024FF000414FF00000A1F500212B
:1057F00070BD19461046012851EB010418BFD4F5BD
:10580000001484BF002001F0004170BD0808A0F51D
:1058100000114FEA3101704753EA010C17D41CF50F
:10582000801F58BFBCF5801F00F106808B4218BF57
:10583000704708BF8242704707D713F5801F58BFD3
:1058400011F5801F19D48B4270479B4270471CF59D
:10585000801F08D5BCF5801FF7D5994218BF704747
:1058600008BF904270474FF4001C1CEB430F38BF39
:105870001CEB410F01D2994270470FB40CBC03BC22
:10588000FFF7C1BE5FEA410C5FEA5C5CACF5806388
:105890005B1C39D4D3F1340240F34580B2F12003CC
:1058A00014DA4FF0010C0CFA02FCACF101030340D6
:1058B000B3EB5C0220EA030008BF10EA0C0F98BFAC
:1058C000704710EB0C0041F1000170470AD0C3F1A2
:1058D000200201FA02FC012821FA03F101FA03F186
:1058E0004CF100004FF0010C0CFA03FCACF1010389
:1058F000B0F1004F21EA030108BF11EA0C0F4FF08D
:10590000000088BF61447047B3F1FF3F28BF50EAF1
:10591000C12C01F000414FF0000084BF41F07C51E8
:1059200041F470017047B3F5806FB8BF704770B530
:10593000FFF71EFF40DBB6BE91EA030F10B581F002
:1059400000413FF55FAB83F0004300F009B8000071
:1059500010B591EA030F48BF83F000433FF552AB07
:10596000841A71EB030C07D212198CF0004C43EB34
:105970000C03001B61EB0C01DFF8A4E14FEA1154AA
:10598000A4EB135C1EEA430F18BF9EEA445F00F0CD
:10599000B08023EA6E03524221EA0451C3EB6E0346
:1059A00038BF5B1EDCF1200E25D322FA0CFE10EB73
:1059B0000E0043FA0CFE41EB0E01CCF1200E03FA6F
:1059C0000EFE10EB0E0051F10001CCF1200E29D497
:1059D00012FA0EF201EB0451BDE8104058BF7047B7
:1059E000401C1CBFB2F1004F704700280CBF491C7F
:1059F00020F00100704712EB020E43EB030218BFC8
:105A00004FF0010E4EEA4202ACF1200CDCF11E0E0A
:105A100054D943FA0CFE10EB0E0051F1FF31CCF1DA
:105A20001E0ED5D50EF1010E12FA0EFE404141EBCD
:105A3000010101EB445C5FEA5C5C10D910EBDE70A5
:105A400001EB045138BFBEF1004FBDE8104018BF54
:105A5000704700280CBF491C20F00100704730D26D
:105A60004FEAD42C11F5001124F400641BD0B1FAD4
:105A700081F20B3AA41AA41ED2F12003914030FA0D
:105A800003F31943904001EBCC71002C01EB04515E
:105A9000BDE81040A8BF704701F1C0414FF00000C1
:105AA00001F000417047B0FA80F310FA03F100D121
:105AB00010BDE41A173C4805C90AE4E701EB04519C
:105AC00010BD491001EB0451BDE810404FEA300011
:105AD00002E04FF0000170474A0008BF0042F8D0D2
